{
	"testers_zguf/require.sol": {
		"contRequire": {
			"abi": [
				{
					"inputs": [
						{
							"internalType": "uint256",
							"name": "x",
							"type": "uint256"
						}
					],
					"name": "mustNotBeFive",
					"outputs": [
						{
							"internalType": "uint256",
							"name": "",
							"type": "uint256"
						}
					],
					"stateMutability": "pure",
					"type": "function"
				}
			],
			"devdoc": {
				"kind": "dev",
				"methods": {},
				"version": 1
			},
			"evm": {
				"assembly": "    /* \"testers_zguf/require.sol\":63:231  contract contRequire {... */\n  mstore(0x40, 0x80)\n  callvalue\n  dup1\n  iszero\n  tag_1\n  jumpi\n  0x00\n  dup1\n  revert\ntag_1:\n  pop\n  dataSize(sub_0)\n  dup1\n  dataOffset(sub_0)\n  0x00\n  codecopy\n  0x00\n  return\nstop\n\nsub_0: assembly {\n        /* \"testers_zguf/require.sol\":63:231  contract contRequire {... */\n      mstore(0x40, 0x80)\n      callvalue\n      dup1\n      iszero\n      tag_1\n      jumpi\n      0x00\n      dup1\n      revert\n    tag_1:\n      pop\n      jumpi(tag_2, lt(calldatasize, 0x04))\n      shr(0xe0, calldataload(0x00))\n      dup1\n      0x37373ef4\n      eq\n      tag_3\n      jumpi\n    tag_2:\n      0x00\n      dup1\n      revert\n        /* \"testers_zguf/require.sol\":90:229  function mustNotBeFive(uint256 x) public pure returns (uint256) {... */\n    tag_3:\n      tag_4\n      0x04\n      dup1\n      calldatasize\n      sub\n      dup2\n      add\n      swap1\n      tag_5\n      swap2\n      swap1\n      tag_6\n      jump\t// in\n    tag_5:\n      tag_7\n      jump\t// in\n    tag_4:\n      mload(0x40)\n      tag_8\n      swap2\n      swap1\n      tag_9\n      jump\t// in\n    tag_8:\n      mload(0x40)\n      dup1\n      swap2\n      sub\n      swap1\n      return\n    tag_7:\n        /* \"testers_zguf/require.sol\":145:152  uint256 */\n      0x00\n        /* \"testers_zguf/require.sol\":177:178  5 */\n      0x05\n        /* \"testers_zguf/require.sol\":172:173  x */\n      dup3\n        /* \"testers_zguf/require.sol\":172:178  x != 5 */\n      sub\n        /* \"testers_zguf/require.sol\":164:200  require(x != 5, \"five is not valid\") */\n      tag_11\n      jumpi\n      mload(0x40)\n      0x08c379a000000000000000000000000000000000000000000000000000000000\n      dup2\n      mstore\n      0x04\n      add\n      tag_12\n      swap1\n      tag_13\n      jump\t// in\n    tag_12:\n      mload(0x40)\n      dup1\n      swap2\n      sub\n      swap1\n      revert\n    tag_11:\n        /* \"testers_zguf/require.sol\":221:222  2 */\n      0x02\n        /* \"testers_zguf/require.sol\":217:218  x */\n      dup3\n        /* \"testers_zguf/require.sol\":217:222  x * 2 */\n      tag_14\n      swap2\n      swap1\n      tag_15\n      jump\t// in\n    tag_14:\n        /* \"testers_zguf/require.sol\":210:222  return x * 2 */\n      swap1\n      pop\n        /* \"testers_zguf/require.sol\":90:229  function mustNotBeFive(uint256 x) public pure returns (uint256) {... */\n      swap2\n      swap1\n      pop\n      jump\t// out\n        /* \"#utility.yul\":88:205   */\n    tag_17:\n        /* \"#utility.yul\":197:198   */\n      0x00\n        /* \"#utility.yul\":194:195   */\n      dup1\n        /* \"#utility.yul\":187:199   */\n      revert\n        /* \"#utility.yul\":334:411   */\n    tag_19:\n        /* \"#utility.yul\":371:378   */\n      0x00\n        /* \"#utility.yul\":400:405   */\n      dup2\n        /* \"#utility.yul\":389:405   */\n      swap1\n      pop\n        /* \"#utility.yul\":334:411   */\n      swap2\n      swap1\n      pop\n      jump\t// out\n        /* \"#utility.yul\":417:539   */\n    tag_20:\n        /* \"#utility.yul\":490:514   */\n      tag_33\n        /* \"#utility.yul\":508:513   */\n      dup2\n        /* \"#utility.yul\":490:514   */\n      tag_19\n      jump\t// in\n    tag_33:\n        /* \"#utility.yul\":483:488   */\n      dup2\n        /* \"#utility.yul\":480:515   */\n      eq\n        /* \"#utility.yul\":470:533   */\n      tag_34\n      jumpi\n        /* \"#utility.yul\":529:530   */\n      0x00\n        /* \"#utility.yul\":526:527   */\n      dup1\n        /* \"#utility.yul\":519:531   */\n      revert\n        /* \"#utility.yul\":470:533   */\n    tag_34:\n        /* \"#utility.yul\":417:539   */\n      pop\n      jump\t// out\n        /* \"#utility.yul\":545:684   */\n    tag_21:\n        /* \"#utility.yul\":591:596   */\n      0x00\n        /* \"#utility.yul\":629:635   */\n      dup2\n        /* \"#utility.yul\":616:636   */\n      calldataload\n        /* \"#utility.yul\":607:636   */\n      swap1\n      pop\n        /* \"#utility.yul\":645:678   */\n      tag_36\n        /* \"#utility.yul\":672:677   */\n      dup2\n        /* \"#utility.yul\":645:678   */\n      tag_20\n      jump\t// in\n    tag_36:\n        /* \"#utility.yul\":545:684   */\n      swap3\n      swap2\n      pop\n      pop\n      jump\t// out\n        /* \"#utility.yul\":690:1019   */\n    tag_6:\n        /* \"#utility.yul\":749:755   */\n      0x00\n        /* \"#utility.yul\":798:800   */\n      0x20\n        /* \"#utility.yul\":786:795   */\n      dup3\n        /* \"#utility.yul\":777:784   */\n      dup5\n        /* \"#utility.yul\":773:796   */\n      sub\n        /* \"#utility.yul\":769:801   */\n      slt\n        /* \"#utility.yul\":766:885   */\n      iszero\n      tag_38\n      jumpi\n        /* \"#utility.yul\":804:883   */\n      tag_39\n      tag_17\n      jump\t// in\n    tag_39:\n        /* \"#utility.yul\":766:885   */\n    tag_38:\n        /* \"#utility.yul\":924:925   */\n      0x00\n        /* \"#utility.yul\":949:1002   */\n      tag_40\n        /* \"#utility.yul\":994:1001   */\n      dup5\n        /* \"#utility.yul\":985:991   */\n      dup3\n        /* \"#utility.yul\":974:983   */\n      dup6\n        /* \"#utility.yul\":970:992   */\n      add\n        /* \"#utility.yul\":949:1002   */\n      tag_21\n      jump\t// in\n    tag_40:\n        /* \"#utility.yul\":939:1002   */\n      swap2\n      pop\n        /* \"#utility.yul\":895:1012   */\n      pop\n        /* \"#utility.yul\":690:1019   */\n      swap3\n      swap2\n      pop\n      pop\n      jump\t// out\n        /* \"#utility.yul\":1025:1143   */\n    tag_22:\n        /* \"#utility.yul\":1112:1136   */\n      tag_42\n        /* \"#utility.yul\":1130:1135   */\n      dup2\n        /* \"#utility.yul\":1112:1136   */\n      tag_19\n      jump\t// in\n    tag_42:\n        /* \"#utility.yul\":1107:1110   */\n      dup3\n        /* \"#utility.yul\":1100:1137   */\n      mstore\n        /* \"#utility.yul\":1025:1143   */\n      pop\n      pop\n      jump\t// out\n        /* \"#utility.yul\":1149:1371   */\n    tag_9:\n        /* \"#utility.yul\":1242:1246   */\n      0x00\n        /* \"#utility.yul\":1280:1282   */\n      0x20\n        /* \"#utility.yul\":1269:1278   */\n      dup3\n        /* \"#utility.yul\":1265:1283   */\n      add\n        /* \"#utility.yul\":1257:1283   */\n      swap1\n      pop\n        /* \"#utility.yul\":1293:1364   */\n      tag_44\n        /* \"#utility.yul\":1361:1362   */\n      0x00\n        /* \"#utility.yul\":1350:1359   */\n      dup4\n        /* \"#utility.yul\":1346:1363   */\n      add\n        /* \"#utility.yul\":1337:1343   */\n      dup5\n        /* \"#utility.yul\":1293:1364   */\n      tag_22\n      jump\t// in\n    tag_44:\n        /* \"#utility.yul\":1149:1371   */\n      swap3\n      swap2\n      pop\n      pop\n      jump\t// out\n        /* \"#utility.yul\":1377:1546   */\n    tag_23:\n        /* \"#utility.yul\":1461:1472   */\n      0x00\n        /* \"#utility.yul\":1495:1501   */\n      dup3\n        /* \"#utility.yul\":1490:1493   */\n      dup3\n        /* \"#utility.yul\":1483:1502   */\n      mstore\n        /* \"#utility.yul\":1535:1539   */\n      0x20\n        /* \"#utility.yul\":1530:1533   */\n      dup3\n        /* \"#utility.yul\":1526:1540   */\n      add\n        /* \"#utility.yul\":1511:1540   */\n      swap1\n      pop\n        /* \"#utility.yul\":1377:1546   */\n      swap3\n      swap2\n      pop\n      pop\n      jump\t// out\n        /* \"#utility.yul\":1552:1719   */\n    tag_24:\n        /* \"#utility.yul\":1692:1711   */\n      0x66697665206973206e6f742076616c6964000000000000000000000000000000\n        /* \"#utility.yul\":1688:1689   */\n      0x00\n        /* \"#utility.yul\":1680:1686   */\n      dup3\n        /* \"#utility.yul\":1676:1690   */\n      add\n        /* \"#utility.yul\":1669:1712   */\n      mstore\n        /* \"#utility.yul\":1552:1719   */\n      pop\n      jump\t// out\n        /* \"#utility.yul\":1725:2091   */\n    tag_25:\n        /* \"#utility.yul\":1867:1870   */\n      0x00\n        /* \"#utility.yul\":1888:1955   */\n      tag_48\n        /* \"#utility.yul\":1952:1954   */\n      0x11\n        /* \"#utility.yul\":1947:1950   */\n      dup4\n        /* \"#utility.yul\":1888:1955   */\n      tag_23\n      jump\t// in\n    tag_48:\n        /* \"#utility.yul\":1881:1955   */\n      swap2\n      pop\n        /* \"#utility.yul\":1964:2057   */\n      tag_49\n        /* \"#utility.yul\":2053:2056   */\n      dup3\n        /* \"#utility.yul\":1964:2057   */\n      tag_24\n      jump\t// in\n    tag_49:\n        /* \"#utility.yul\":2082:2084   */\n      0x20\n        /* \"#utility.yul\":2077:2080   */\n      dup3\n        /* \"#utility.yul\":2073:2085   */\n      add\n        /* \"#utility.yul\":2066:2085   */\n      swap1\n      pop\n        /* \"#utility.yul\":1725:2091   */\n      swap2\n      swap1\n      pop\n      jump\t// out\n        /* \"#utility.yul\":2097:2516   */\n    tag_13:\n        /* \"#utility.yul\":2263:2267   */\n      0x00\n        /* \"#utility.yul\":2301:2303   */\n      0x20\n        /* \"#utility.yul\":2290:2299   */\n      dup3\n        /* \"#utility.yul\":2286:2304   */\n      add\n        /* \"#utility.yul\":2278:2304   */\n      swap1\n      pop\n        /* \"#utility.yul\":2350:2359   */\n      dup2\n        /* \"#utility.yul\":2344:2348   */\n      dup2\n        /* \"#utility.yul\":2340:2360   */\n      sub\n        /* \"#utility.yul\":2336:2337   */\n      0x00\n        /* \"#utility.yul\":2325:2334   */\n      dup4\n        /* \"#utility.yul\":2321:2338   */\n      add\n        /* \"#utility.yul\":2314:2361   */\n      mstore\n        /* \"#utility.yul\":2378:2509   */\n      tag_51\n        /* \"#utility.yul\":2504:2508   */\n      dup2\n        /* \"#utility.yul\":2378:2509   */\n      tag_25\n      jump\t// in\n    tag_51:\n        /* \"#utility.yul\":2370:2509   */\n      swap1\n      pop\n        /* \"#utility.yul\":2097:2516   */\n      swap2\n      swap1\n      pop\n      jump\t// out\n        /* \"#utility.yul\":2522:2702   */\n    tag_26:\n        /* \"#utility.yul\":2570:2647   */\n      0x4e487b7100000000000000000000000000000000000000000000000000000000\n        /* \"#utility.yul\":2567:2568   */\n      0x00\n        /* \"#utility.yul\":2560:2648   */\n      mstore\n        /* \"#utility.yul\":2667:2671   */\n      0x11\n        /* \"#utility.yul\":2664:2665   */\n      0x04\n        /* \"#utility.yul\":2657:2672   */\n      mstore\n        /* \"#utility.yul\":2691:2695   */\n      0x24\n        /* \"#utility.yul\":2688:2689   */\n      0x00\n        /* \"#utility.yul\":2681:2696   */\n      revert\n        /* \"#utility.yul\":2708:3118   */\n    tag_15:\n        /* \"#utility.yul\":2748:2755   */\n      0x00\n        /* \"#utility.yul\":2771:2791   */\n      tag_54\n        /* \"#utility.yul\":2789:2790   */\n      dup3\n        /* \"#utility.yul\":2771:2791   */\n      tag_19\n      jump\t// in\n    tag_54:\n        /* \"#utility.yul\":2766:2791   */\n      swap2\n      pop\n        /* \"#utility.yul\":2805:2825   */\n      tag_55\n        /* \"#utility.yul\":2823:2824   */\n      dup4\n        /* \"#utility.yul\":2805:2825   */\n      tag_19\n      jump\t// in\n    tag_55:\n        /* \"#utility.yul\":2800:2825   */\n      swap3\n      pop\n        /* \"#utility.yul\":2860:2861   */\n      dup3\n        /* \"#utility.yul\":2857:2858   */\n      dup3\n        /* \"#utility.yul\":2853:2862   */\n      mul\n        /* \"#utility.yul\":2882:2912   */\n      tag_56\n        /* \"#utility.yul\":2900:2911   */\n      dup2\n        /* \"#utility.yul\":2882:2912   */\n      tag_19\n      jump\t// in\n    tag_56:\n        /* \"#utility.yul\":2871:2912   */\n      swap2\n      pop\n        /* \"#utility.yul\":3061:3062   */\n      dup3\n        /* \"#utility.yul\":3052:3059   */\n      dup3\n        /* \"#utility.yul\":3048:3063   */\n      div\n        /* \"#utility.yul\":3045:3046   */\n      dup5\n        /* \"#utility.yul\":3042:3064   */\n      eq\n        /* \"#utility.yul\":3022:3023   */\n      dup4\n        /* \"#utility.yul\":3015:3024   */\n      iszero\n        /* \"#utility.yul\":2995:3078   */\n      or\n        /* \"#utility.yul\":2972:3111   */\n      tag_57\n      jumpi\n        /* \"#utility.yul\":3091:3109   */\n      tag_58\n      tag_26\n      jump\t// in\n    tag_58:\n        /* \"#utility.yul\":2972:3111   */\n    tag_57:\n        /* \"#utility.yul\":2756:3118   */\n      pop\n        /* \"#utility.yul\":2708:3118   */\n      swap3\n      swap2\n      pop\n      pop\n      jump\t// out\n\n    auxdata: 0xa26469706673582212201af6736eb26cebae5cec05a6a3909a397201135983c98acfbc59de6a1556d4bf64736f6c63430008120033\n}\n",
				"bytecode": {
					"linkReferences": {},
					"object": "608060405234801561001057600080fd5b5061026f806100206000396000f3fe608060405234801561001057600080fd5b506004361061002b5760003560e01c806337373ef414610030575b600080fd5b61004a600480360381019061004591906100f4565b610060565b6040516100579190610130565b60405180910390f35b6000600582036100a5576040517f08c379a000000000000000000000000000000000000000000000000000000000815260040161009c906101a8565b60405180910390fd5b6002826100b291906101f7565b9050919050565b600080fd5b6000819050919050565b6100d1816100be565b81146100dc57600080fd5b50565b6000813590506100ee816100c8565b92915050565b60006020828403121561010a576101096100b9565b5b6000610118848285016100df565b91505092915050565b61012a816100be565b82525050565b60006020820190506101456000830184610121565b92915050565b600082825260208201905092915050565b7f66697665206973206e6f742076616c6964000000000000000000000000000000600082015250565b600061019260118361014b565b915061019d8261015c565b602082019050919050565b600060208201905081810360008301526101c181610185565b9050919050565b7f4e487b7100000000000000000000000000000000000000000000000000000000600052601160045260246000fd5b6000610202826100be565b915061020d836100be565b925082820261021b816100be565b91508282048414831517610232576102316101c8565b5b509291505056fea26469706673582212201af6736eb26cebae5cec05a6a3909a397201135983c98acfbc59de6a1556d4bf64736f6c63430008120033",
					"opcodes": "PUSH1 0x80 PUSH1 0x40 MSTORE CALLVALUE DUP1 ISZERO PUSH2 0x10 JUMPI PUSH1 0x0 DUP1 REVERT JUMPDEST POP PUSH2 0x26F DUP1 PUSH2 0x20 PUSH1 0x0 CODECOPY PUSH1 0x0 RETURN INVALID PUSH1 0x80 PUSH1 0x40 MSTORE CALLVALUE DUP1 ISZERO PUSH2 0x10 JUMPI PUSH1 0x0 DUP1 REVERT JUMPDEST POP PUSH1 0x4 CALLDATASIZE LT PUSH2 0x2B JUMPI PUSH1 0x0 CALLDATALOAD PUSH1 0xE0 SHR DUP1 PUSH4 0x37373EF4 EQ PUSH2 0x30 JUMPI JUMPDEST PUSH1 0x0 DUP1 REVERT JUMPDEST PUSH2 0x4A PUSH1 0x4 DUP1 CALLDATASIZE SUB DUP2 ADD SWAP1 PUSH2 0x45 SWAP2 SWAP1 PUSH2 0xF4 JUMP JUMPDEST PUSH2 0x60 JUMP JUMPDEST PUSH1 0x40 MLOAD PUSH2 0x57 SWAP2 SWAP1 PUSH2 0x130 JUMP JUMPDEST PUSH1 0x40 MLOAD DUP1 SWAP2 SUB SWAP1 RETURN JUMPDEST PUSH1 0x0 PUSH1 0x5 DUP3 SUB PUSH2 0xA5 JUMPI PUSH1 0x40 MLOAD PUSH32 0x8C379A000000000000000000000000000000000000000000000000000000000 DUP2 MSTORE PUSH1 0x4 ADD PUSH2 0x9C SWAP1 PUSH2 0x1A8 JUMP JUMPDEST PUSH1 0x40 MLOAD DUP1 SWAP2 SUB SWAP1 REVERT JUMPDEST PUSH1 0x2 DUP3 PUSH2 0xB2 SWAP2 SWAP1 PUSH2 0x1F7 JUMP JUMPDEST SWAP1 POP SWAP2 SWAP1 POP JUMP JUMPDEST PUSH1 0x0 DUP1 REVERT JUMPDEST PUSH1 0x0 DUP2 SWAP1 POP SWAP2 SWAP1 POP JUMP JUMPDEST PUSH2 0xD1 DUP2 PUSH2 0xBE JUMP JUMPDEST DUP2 EQ PUSH2 0xDC JUMPI PUSH1 0x0 DUP1 REVERT JUMPDEST POP JUMP JUMPDEST PUSH1 0x0 DUP2 CALLDATALOAD SWAP1 POP PUSH2 0xEE DUP2 PUSH2 0xC8 JUMP JUMPDEST SWAP3 SWAP2 POP POP JUMP JUMPDEST PUSH1 0x0 PUSH1 0x20 DUP3 DUP5 SUB SLT ISZERO PUSH2 0x10A JUMPI PUSH2 0x109 PUSH2 0xB9 JUMP JUMPDEST JUMPDEST PUSH1 0x0 PUSH2 0x118 DUP5 DUP3 DUP6 ADD PUSH2 0xDF JUMP JUMPDEST SWAP2 POP POP SWAP3 SWAP2 POP POP JUMP JUMPDEST PUSH2 0x12A DUP2 PUSH2 0xBE JUMP JUMPDEST DUP3 MSTORE POP POP JUMP JUMPDEST PUSH1 0x0 PUSH1 0x20 DUP3 ADD SWAP1 POP PUSH2 0x145 PUSH1 0x0 DUP4 ADD DUP5 PUSH2 0x121 JUMP JUMPDEST SWAP3 SWAP2 POP POP JUMP JUMPDEST PUSH1 0x0 DUP3 DUP3 MSTORE PUSH1 0x20 DUP3 ADD SWAP1 POP SWAP3 SWAP2 POP POP JUMP JUMPDEST PUSH32 0x66697665206973206E6F742076616C6964000000000000000000000000000000 PUSH1 0x0 DUP3 ADD MSTORE POP JUMP JUMPDEST PUSH1 0x0 PUSH2 0x192 PUSH1 0x11 DUP4 PUSH2 0x14B JUMP JUMPDEST SWAP2 POP PUSH2 0x19D DUP3 PUSH2 0x15C JUMP JUMPDEST PUSH1 0x20 DUP3 ADD SWAP1 POP SWAP2 SWAP1 POP JUMP JUMPDEST PUSH1 0x0 PUSH1 0x20 DUP3 ADD SWAP1 POP DUP2 DUP2 SUB PUSH1 0x0 DUP4 ADD MSTORE PUSH2 0x1C1 DUP2 PUSH2 0x185 JUMP JUMPDEST SWAP1 POP SWAP2 SWAP1 POP JUMP JUMPDEST PUSH32 0x4E487B7100000000000000000000000000000000000000000000000000000000 PUSH1 0x0 MSTORE PUSH1 0x11 PUSH1 0x4 MSTORE PUSH1 0x24 PUSH1 0x0 REVERT JUMPDEST PUSH1 0x0 PUSH2 0x202 DUP3 PUSH2 0xBE JUMP JUMPDEST SWAP2 POP PUSH2 0x20D DUP4 PUSH2 0xBE JUMP JUMPDEST SWAP3 POP DUP3 DUP3 MUL PUSH2 0x21B DUP2 PUSH2 0xBE JUMP JUMPDEST SWAP2 POP DUP3 DUP3 DIV DUP5 EQ DUP4 ISZERO OR PUSH2 0x232 JUMPI PUSH2 0x231 PUSH2 0x1C8 JUMP JUMPDEST JUMPDEST POP SWAP3 SWAP2 POP POP JUMP INVALID LOG2 PUSH5 0x6970667358 0x22 SLT KECCAK256 BYTE 0xF6 PUSH20 0x6EB26CEBAE5CEC05A6A3909A397201135983C98A 0xCF 0xBC MSIZE 0xDE PUSH11 0x1556D4BF64736F6C634300 ADDMOD SLT STOP CALLER "
				},
				"gasEstimates": {
					"creation": {
						"codeDepositCost": "124600",
						"executionCost": "171",
						"totalCost": "124771"
					},
					"external": {
						"mustNotBeFive(uint256)": "infinite"
					}
				},
				"methodIdentifiers": {
					"mustNotBeFive(uint256)": "37373ef4"
				}
			},
			"storageLayout": {
				"storage": [],
				"types": null
			},
			"userdoc": {
				"kind": "user",
				"methods": {},
				"version": 1
			}
		}
	}
}